:020000040800F2
:1000000020120020D50100083F1C0008E71B000853
:100010003D1C0008CD03000849290008000000002D
:10002000000000000000000000000000791F000830
:10003000CF03000800000000D31E00087B1F00084B
:10004000EF010008EF010008EF010008EF010008D0
:10005000EF010008EF010008EF010008EF010008C0
:10006000EF010008EF010008EF010008EF010008B0
:10007000EF010008EF010008EF010008EF010008A0
:10008000EF010008EF010008EF010008EF01000890
:1000900000000000EF010008EF010008EF01000878
:1000A000EF010008EF010008EF010008EF01000870
:1000B000EF010008EF010008EF010008EF01000860
:1000C000EF010008EF010008EF010008EF01000850
:1000D0003929000841290008EF010008EF01000854
:1000E000EF010008EF010008EF010008EF01000830
:1000F000EF0100080000000000000000EF01000810
:10010000EF010008EF010008EF010008EF0100080F
:10011000EF010008EF010008EF010008EF010008FF
:10012000EF010008EF010008EF010008EF010008EF
:10013000EF010008EF01000800F002F800F03AF8C3
:100140000AA090E8000C82448344AAF10107DA4532
:1001500001D100F02FF8AFF2090EBAE80F0013F04A
:10016000010F18BFFB1A43F001031847CC370000FA
:10017000EC370000103A24BF78C878C1FAD852078B
:1001800024BF30C830C144BF04680C607047000011
:100190000023002400250026103A28BF78C1FBD890
:1001A000520728BF30C148BF0B6070471FB51FBD45
:1001B00010B510BD00F0D7F81146FFF7F7FF02F0B9
:1001C000F3FB00F0F5F803B4FFF7F2FF03BC00F017
:1001D000C3F800000948804709480047FEE7FEE7EA
:1001E000FEE7FEE7FEE7FEE7FEE7FEE7FEE7FEE7E7
:1001F00004480549054A064B7047000001200008E5
:1002000039010008200C002020120020200E0020C0
:10021000200E002053EA020C00F069802DE9F04B1B
:100220004FF00006002B1FBFB3FA83F503FA05F465
:1002300024FA05F65E4012BF1643B2FA82F502FABE
:1002400005F4C5F120051EBF22FA05FC44EA0C04A2
:10025000203556EA044C4FEA144418BF641C4FF092
:1002600000084FF00009904271EB030C39D30029CC
:1002700019BFB1FA81F701FA07F6B0FA80F700FA70
:1002800007F6C7F120071EBF20FA07FC46EA0C0656
:100290002037B6FBF4FCA7EB0507103F07F01F0B58
:1002A000CBF120062CFA06F60CFA0BFB44BFB34642
:1002B0000026202FA4BF5E464FF0000B5BEA060C21
:1002C00008BF4FF0010B19EB0B0948EB0608ABFB1D
:1002D000027C06FB02CC0BFB03CCC01B71EB0C01B8
:1002E000C1E70B46024641464846BDE8F08B13B5D0
:1002F000084318BF4FF0FF300146AFF30080BDE860
:100300001C4070474FF0000200B5134694469646D5
:10031000203922BFA0E80C50A0E80C50B1F1200118
:10032000BFF4F7AF090728BFA0E80C5048BF0CC0C6
:100330005DF804EB890028BF40F8042B08BF704724
:1003400048BF20F8022B11F0804F18BF00F8012B96
:10035000704770477047704701491820ABBEFEE7F1
:10036000260002007047754600F02CF8AE460500E6
:100370006946534620F00700854618B020B5FFF7C0
:1003800037FFBDE820404FF000064FF000074FF068
:1003900000084FF0000BAC46ACE8C009ACE8C0095F
:1003A000ACE8C009ACE8C00921F007018D467047F0
:1003B00010B50446AFF300802046BDE81040FFF7BB
:1003C00002BF00000048704718000020FEE7704799
:1003D000EFF3108072B6FEE7B0B5204A536843F4DD
:1003E00080235360EFF31083EFF3108472B6402440
:1003F00020C9013C20C02506FAD11068C003FCD4F6
:1004000083F31088B0BD00BF70B5144E044600F0F1
:1004100041FB05463068C00305D500F03BFB401B9F
:10042000A042F7D317E03068C1071CBF012131603B
:100430004CF2FA31084004D0E649486030600120AF
:1004400070BD306840035CBF002070BD00F022FB2F
:10045000401BA042F5D3032070BD00BF10400058E0
:10046000B0B5CB0701D10120B0BD1E242346013415
:1004700007D003F01F0421FA04F4E407A3F10104F8
:10048000F4D04FEAF204032CEDD8DFE804F00A02BE
:1004900005080F2BE7D804E0072BE4D801E0062B72
:1004A000E1D800684161816821F018011143816041
:1004B0000020B0BD10B588B10446407F20B90020AF
:1004C0002077204600F02EF802206077207938B19E
:1004D000D4E902122046FFF7C3FF40B1012010BD4E
:1004E00020680F494161816821F0180181606079BD
:1004F00008B1206901E04FF0FF302168D4E90523FD
:100500000861886820F0600010438860886820F0E7
:1005100080001843886001206077002010BD00BF74
:10052000B71DC10481B000680749884209D1074856
:10053000016841F480510160006800F4805000902F
:10054000009801B0704700BF0030024048000058DA
:1005500050B3B0B590F82510022927D1016800F1F9
:1005600040041CCC0D6803F01C0325F00E050D6043
:10057000256825F4807525600C6824F001040C6062
:10058000012101FA03F35360D0E913235360426D54
:1005900032B1136823F480731360D0E916235360DB
:1005A00080F82510002104E0012107E00421C16347
:1005B0000121002280F82420BDE8B04008467047A1
:1005C000B0B590F8251002292BD10168D0E910327E
:1005D000846C0D6825F00E050D600D6825F0010591
:1005E0000D60216821F48071216002F01C0101225C
:1005F00002FA01F15960D0E913134B60416D31B13A
:100600000B6823F480730B60D0E916134B60002154
:1006100080F8241080F82520826B2AB190470021B1
:1006200002E00421C16301210846B0BD80B5124833
:1006300001694FF0FF3101614269416102690022A5
:100640000261436942618369816183698261C3692F
:10065000C161C369C26103680160036802604368E5
:10066000416043684260836881608168826000F015
:100670005DFA002080BD00BF28000058B0B50446D8
:1006800000F008FA05460548611C007818BF0444CC
:1006900000F000FA401BA042FAD3B0BD00000020D9
:1006A0002DE9F84FDFF82CA105469AF80000012843
:1006B00004BF0220BDE8F88F0120002489468AF893
:1006C00000004FF47A70CAF80440FFF79DFEC8BBE3
:1006D0002868414B1D4A04289B4607D11968901C85
:1006E0000843186001F0CAFA5B4627E04FF0FF307C
:1006F0001749C9F8000068688846C4000646A9681A
:10070000084486420FD21868174600EA08002043C2
:100710001043186001F0B2FA38B96868083401363D
:100720003A465B46EBE7002002E05B46C9F8006012
:10073000196840F2FA3200249143196053F8141CEE
:1007400053F8141C8AF80040BDE8F88F020001003D
:1007500005FCFEFF2048016841F00041016000688F
:10076000C043C00F704700BF2DE9F843194F04463E
:100770003878012804BF0220BDE8F88301204FF03B
:100780000009984616460D4638704FF47A70C7F83F
:100790000490FFF739FEC8B90F49012C0AD1086847
:1007A00040F0010008602E60BFF36F8FC5F8048031
:1007B0000D4604E028460D463146FFF70DFE4FF486
:1007C0007A70FFF721FE2968A143296087F800901D
:1007D000BDE8F883F4020020144000580648C168C0
:1007E000B1F1FF3FC4BF00207047044901600449D4
:1007F0000160C068C00F704708400058230167457A
:10080000AB89EFCD2DE9FC4F974A4FF0000890429D
:100810004FF0070208BF022200240023009201913A
:1008200031FA03F608BFBDE8FC8F012202FA03F695
:1008300016EA010E57D08E4A4FEA930CB0F1904F52
:1008400052F82C9007D08B4ADDF800A0904208BFE8
:100850004FF0010A01E04FF0000A08F00C0B0721ED
:10086000424601FA0BF80AFA0BF509EA0807AF420B
:100870001BD17E49D1F8805025EA0E05C1F8805081
:10088000D1F8845025EA0E05C1F884500D6825EA98
:100890000E050D604D6825EA0E054D60744951F84E
:1008A0002C5025EA080541F82C5003210768904692
:1008B00001FA04F50F212F43076002F01C0701FA2B
:1008C00007F76FF0030101EA53020244116AB943CA
:1008D00011628168A94381604168B1434160C16888
:1008E000A943C160019908F104080234013397E774
:1008F0002DE9F84F5C4A5E4F4FF000094FF0010BB5
:100900004FF0000890424FF0070208BF0222002378
:1009100000920D6835FA03F208BFBDE8F88F0BFAB4
:1009200003F215EA020A00F099804E6806F0030C03
:10093000ACF10105012D19D8032404FA08F58468E7
:1009400024EA050ECC6804FA08F444EA0E04846034
:10095000C6F3001404FA03FE446824EA020242EAE1
:100960000E026FEA050E42605A000CE0032202FA02
:1009700008F2BCF1030F6FEA020E424603D1424671
:100980004FF0030C1FE0C4688D6804EA0E04954024
:100990002C43BCF1020FC46015D109F01C040F25D3
:1009A00005FA04FC6FF0030505EA53060644356AB0
:1009B00025EA0C0C0D6905FA04F444EA0C043462CF
:1009C0004E6806F0030C04680CFA02F204EA0E0406
:1009D000224316F4403F026040D09A0857F822C0E4
:1009E000B0F1904F05D0234C009DA04208BF0125D7
:1009F00000E0002509F00C040726A64005FA04F4DF
:100A00002CEA0606BC46344347F82240174A1746EC
:100A100012684D6842EA0A04EE0258BF22EA0A044C
:100A20003C60AE027A6842EA0A0458BF22EA0A042D
:100A30007C60EE03D7F8802042EA0A0458BF22EA1D
:100A40000A04C7F88040AD03D7F8842042EA0A04BC
:100A500058BF22EA0A04C7F88440674609F104092E
:100A600008F10208013354E7000800480008005864
:100A70000800014000040048426902EA0103914372
:100A800041EA0341816170471823002A08BF2823E7
:100A9000C150704705480068704700BF22480349AD
:100AA00000780A6810440860704700BF180C0020E6
:100AB00080B50B48016841F480710160032000F0AB
:100AC00061F800F07BFA074908600F2000F00CF88D
:100AD00008B1012080BD00F02AF8002080BD00BFD1
:100AE000004000580800002070B50F4E04463078D2
:100AF000B8B100F063FA31784FF47A72B2FBF1F1D9
:100B0000B0FBF1F000F088FD01250F2C0AD848B9A0
:100B10004FF0FF3021460022002500F017F87460E6
:100B200000E00125284670BD000000207047704796
:100B3000002808D400F01F010122400902FA01F147
:100B4000014A42F82010704700E100E070B5134BF5
:100B50004FF0FF351B68C3F30223DC1E83F007034D
:100B600038BF002405FA04F6B243042B28BF04233F
:100B700005FA03F39943A1401143BDE8704001F029
:100B8000E5BE00BF05494FF6FF030A681A4060F34F
:100B90000A22034810430860704700BF0CED00E0D4
:100BA0000000FA050548006800F4C060704700BF07
:100BB0000248016841F480710160704700040058E8
:100BC000F8B504468078544EC00742D0FFF7F0FFD6
:100BD000FFF760FF0546D6F8F403C00506D4FFF71B
:100BE00059FF401B0228F6D9032533E0606BD6F885
:100BF000841001F44071814224D0D6F88410D6F8D4
:100C0000842042F48032C6F88420D6F8842022F46E
:100C10008032C6F8842021F4407289070146C6F864
:100C200084200FD5FFF736FF054641F28837D6F806
:100C30008400800705D4FFF72DFF401BB842F6D98A
:100C4000D2E7616BD6F8840020F440700843C6F800
:100C5000840000252068C10702D0616801F0CEF849
:100C6000810702D5A16801F0C9F8810605D521697F
:100C7000F26F22F440621143F167810502D5216AC7
:100C800000F0F2FF410502D5616A00F0EDFF0105B9
:100C900002D5A16A00F0E8FF410603D5606900F0C3
:100CA000BDFF2068010603D5A06900F0B7FF2068EA
:100CB000C10503D5E06900F0B1FF2068C1060CD57D
:100CC000E168F26F22F440720A43B1F5807FF26767
:100CD00003D1316841F08071316001040AD5216B84
:100CE000F26F22F040420A43F26719B9316841F0CD
:100CF0008071316040040CD5E06AF16F21F0405101
:100D00000143B0F1005FF16703D1306840F48030F7
:100D100030602846F8BD00BF0C0000582DE9F843AC
:100D2000002800F09F80674F05460C46386800F0A9
:100D30000700884211D2386820F00700204301F0F4
:100D40009AF80646386800F00700A04205D0FFF781
:100D5000A1FE801B0228F5D956E02868B946AB4FA2
:100D6000810711D5A868396821F0F001084301F026
:100D700082F806463868C00305D4FFF78BFE801B57
:100D80000228F7D940E02868410616D56869D7F8E7
:100D9000001121F00F0141EA1010C7F80001FFF720
:100DA00079FE0646D7F80001C00305D4FFF772FEAE
:100DB000801B0228F6D927E02868410711D5E8688A
:100DC000396821F4E061084301F055F806463868B7
:100DD000800305D4FFF75EFE801B0228F7D913E0DD
:100DE0002868010714D52869396821F4605141EA5F
:100DF000C00001F040F806463868400307D4FFF70A
:100E000049FE801B0228F7D90320BDE8F883286833
:100E1000C0071CD1D9F8000000F00700A04224D977
:100E2000D9F8000020F007002043C9F80000FFF7C0
:100E300031FE05464846D9F8000000F00700A04200
:100E400013D0FFF727FE01F019F8F3D930E06868F6
:100E50004FF0B04198B103282CD002282ED1096858
:100E600089030FD40120BDE8F88300F0A7F85049AA
:100E7000086051480068BDE8F843FFF735BE0968CF
:100E80008907EFD5396821F00301084300F0F3FF2B
:100E9000064641F288386868396801F00C01B1EB08
:100EA000800FB7D0FFF7F6FD811B03204145F2D933
:100EB000BDE8F88309688901D4D5E3E709684905E5
:100EC000D0D5DFE70040005870B5FFF7E3FD4FF0E5
:100ED000B0450446286840F0010028602868800773
:100EE00005D4FFF7D7FD001B0228F7D942E04FF0E9
:100EF000B04006222B4D016862F3071101604021CA
:100F0000286820F47F402860286861F31E6028600C
:100F1000FFF7C0FD0446002041F28836686068682B
:100F200010F00C0F05D0FFF7B5FD001BB042F6D94D
:100F300020E04FF0B0461C493068084000F0C8FE81
:100F400004463068800305D5FFF7A4FD001B642824
:100F5000F7D90FE04FF0B046306820F4001000F0F1
:100F6000B7FE04463068800106D5FFF793FD001BED
:100F70000A28F7D9032070BD0C480E49A86000204C
:100F800068614FF0FF30E8614FF44030C5F804016C
:100F90000748016008480068FFF7A6FD002818BF51
:100FA000012070BD04000058FFF4EEFE0001042291
:100FB0000800002000093D000400002080B500F07A
:100FC00029F812493C22096802EA9101024A515863
:100FD000B0FBF1F080BD00BF4834000880B5FFF7DA
:100FE000EDFF0A490A4A0968C1F3022152F82110AB
:100FF000C84080BD80B5FFF7E1FF0449044A096895
:10100000C1F3C22152F82110C84080BD0800005829
:101010008834000810B5364951F8042C086812F0DD
:101020000C0205D00C2A15D100F00300012811D1C3
:101030004FF0B0400368006800F008001B0705D4BB
:10104000B8B9D1F88800C0F303201CE0B0B9D1F8DA
:10105000880011E02748042A1ED0082A1BD14FF02F
:10106000B0421268D2025CBF44F60000C0F2E81041
:1010700012E04FF0B0400068002004E04FF0B040B4
:101080000068C0F303101C4B002A53F820301846A8
:1010900018BF002001E00020002351F8042C02F0CA
:1010A0000C020C2A22D1086800F003021148022A1F
:1010B0000CD0032A09D14FF0B0421268D2025CBFB3
:1010C00044F60000C0F2E81000E018460A680B6819
:1010D00009680124C2F3062204EB51715043C3F3A3
:1010E00002120132B0FBF2F0B0FBF1F010BD00BF14
:1010F0000C0000580024F400A83400082DE9F04743
:10110000002800F04A81DD4C8246606800F00C083F
:10111000A06800F003099AF80000800627D49AF826
:101120000000C00766D0B8F1080F5ED0B8F10C0F10
:1011300008BFB9F1030F58D04FF0B041DAE901020E
:101140000B6823F480131A43B0F5803F0A6009D07E
:10115000B0F5041F40F094814FF0B040026842F4B3
:1011600000120260086840F48030086094E1B8F131
:10117000000F1DD0B8F10C0F08BFB9F1010F17D047
:101180004FF0B0463068DAF82010002900F00881EE
:1011900040F0010000F09CFD05463068800700F13A
:1011A0002B81FFF777FC00F069FEF6D9BDE8F087E8
:1011B000DAF82000002800F0F0804FF0B041DAF8B3
:1011C00028000A6812075ABFD4F890100909096864
:1011D00001F0F001884240F2CA8000F07BFE002856
:1011E00040F0DB8000F02CFDFAE0DAF80400002883
:1011F00000F0D3809AF8000080072BD5B8F1040FD7
:101200001BD0B8F10C0F08BFB9F1020F15D04FF089
:10121000B0463068DAF81010002900F04D8140F433
:10122000807000F055FD0546306840050AD4FFF790
:1012300031FC00F023FEF7D9B8E7DAF810000028F7
:1012400000F0AB80DAF81400216821F0FE4141EA99
:10125000006020609AF8000000072CD49AF8000083
:1012600040074FD4DAF82C60002E00F07781B8F1F7
:101270000C0F40F0C480012E00F08F80DAF830109F
:10128000A06800F003028A4240F08780DAF8341048
:1012900000F070028A4240F08080DAF8381000F4E2
:1012A000FE42B2EB012F78D1DAF8441000F0604032
:1012B000884272D152E1D4F89010DAF81800002870
:1012C0007DD0DAF81C0001F01002904200F0898114
:1012D00001F00302022A60D0C90700F07B81D4F834
:1012E000900020F0010000F0D6FD0546D4F89000F3
:1012F000800740F16D81FFF7CDFB411B03201129D1
:10130000F4D953E7D4F8FC03C0050ED4FFF750FC22
:10131000FFF7C0FB0546D4F8FC03C00505D4FFF772
:10132000B9FB00F0ABFDF6D940E7DAF80C00002875
:1013300000F0D180852801D0052805D1D4F88C0093
:1013400040F00400C4F88C00FFF7A4FB00F019FD86
:1013500040F00100C4F88C00D4F88C00800772D4EF
:10136000FFF798FB411B0320B142F5D91EE74FF070
:10137000B0410A6842F008020A600A6822F0F002EE
:1013800002430A60DAF82410226822F47F4242EA1B
:101390000121216000F09EFD10B30120BDE8F0871F
:1013A00020F0010000F094FC0546306880077FF5CE
:1013B000B6AEFFF76FFB00F061FDF6D9F6E621F05F
:1013C000010000F068FD0546D4F8900080077FF525
:1013D00045AFFFF75FFB411B03201129F4D9E5E678
:1013E000FFF7ECFD8849086088480068FFF77CFB40
:1013F00000287FF4DBAE92E600F022FC8FE64FF08F
:10140000B048D8F8000020F08070C8F80000FFF75E
:1014100041FB0546022E0AD1D8F80000800174D5A0
:10142000FFF738FB411B03200A29F5D9BEE6D8F89F
:101430000000800140F18E80FFF72CFB411B032050
:101440000A29F4D9B2E6DAF80C0040F00400852845
:1014500040F08780FFF71EFB00F093FC40F0800017
:10146000C4F88C00D4F88C0000053FF5FBAEFFF704
:1014700011FB411B0320B142F4D997E60400005848
:101480004FF0B0460028316821F480313160316876
:1014900021F40011316078D0FFF7FCFA05464FF0D7
:1014A000B046306880033FF5A5AEFFF7F3FA411B65
:1014B00003206429F5D979E620F4807000F008FC57
:1014C0000546306840057FF5C5AEFFF7E3FA00F04A
:1014D000D5FCF6D96AE6FFF7DDFA0646D4F88C00AB
:1014E00041F2883920F08000C4F88C00D4F88C00D8
:1014F00027460405FFF7CEFA0546002C53D5A91B55
:1015000003203C464945F1D950E6A06841490AF11B
:1015100030070840EECF0843104340EA0320284339
:101520004FF0B04530433843A060286840F08070E9
:101530002860A06840F08050A060FFF7ABFA044636
:10154000286880010AD4FFF7A5FA011B03200A29A5
:10155000F6D92BE6A0682E490840A0600020BDE81F
:10156000F087FFF797FA00F00CFC20F08000C4F839
:101570008C00D4F88C0000057FF574AEFFF78AFA72
:10158000411B0320B142F4D910E6FFF783FA054668
:10159000306880037FF52EAEFFF77CFA411B0320F5
:1015A0006429F5D902E6D7F88C003C4641F288362A
:1015B00020F00100C7F88C00D4F88C0080077FF57C
:1015C00051AEFFF767FA411B0320B142F4D9EDE5B4
:1015D000DAF81C00D4F8901021F010010843C4F888
:1015E0009000D4F8900040F0010000F054FC054653
:1015F000D4F8900080073FF531AEFFF74BFA411B5E
:1016000003201129F4D9D1E50800002004000020AE
:10161000FCFFFEEE8C80C111411E0020B0EB116F6B
:101620001CBF01207047044AF023516003490B702E
:10163000072190601160704710E000E023ED00E0AA
:1016400090F88410012901D1022112E02421C0F870
:10165000881001680A680B6823F0010322F0005229
:101660000B600A6000212022416680F88410C0F8D7
:1016700088200846704770477047B0B500F0C9FB36
:1016800004BF0220B0BD00F007FB22F0606200F052
:10169000FDFB00F029BBB0B500F0BBFB04BF02208E
:1016A000B0BD00F0F9FA22F0604200F0EFFB00F06C
:1016B0001BBB70477047704770B50446006840F622
:1016C0000F05C269016883682A426BD0A94D01EAFF
:1016D0000506A94D1D4076196ED0D60709D0CE0556
:1016E00007D501260662D4F8906046F00106C4F8DA
:1016F0009060960709D5DE0707D002260662D4F867
:10170000906046F00406C4F89060560709D5DE07DD
:1017100007D004260662D4F8906046F00206C4F8AA
:10172000906016070BD501F02006354307D0082539
:101730000562D4F8905045F00805C4F8905015059E
:101740000AD54D0108D54FF400650562D4F89050D4
:1017500045F02005C4F89050D4F89050002D6ED07C
:1017600092060AD501F0200103F08052891804D0B6
:10177000616F11B1204688472068D4F890108068C6
:1017800001F0280100F04000401852D0204600F03F
:10179000DFFC2068816849065FD500F09CFA4FD0D5
:1017A0002068FAE7950607D501F0200503F080567A
:1017B000AD1901D0616F13E0E56E012D03D1D5069F
:1017C00001D5CD064ED4D50201D55D0229D415062A
:1017D0000BD501F0800503F400035B1905D0A16F60
:1017E00069B32046BDE870400847530601D54B0653
:1017F0000DD4100201D5480059D4D0011FD5B1F144
:10180000FF3F1CDC2046BDE87040FFF735BF50E8C5
:10181000000F216820F0400000F0F7FA3DD020686A
:10182000F5E74FF4801101622046BDE87040FFF7F4
:1018300041BF2046FFF73FFF0020C4F8900070BD75
:1018400000F0BFFA09D04D498163FEF7B9FE0028C8
:10185000F5D0D4F88000816BC4E72046BDE8704025
:10186000FFF729BF102101628168490624D4B4F82A
:101870005E10B4F85C20B4F85E30002BDFD0511A53
:101880000A04DCD050E8000F226820F4907042E88F
:101890000003002B4CD02068F4E70020A067202034
:1018A000C4F888002046BDE8704000F09BB920468F
:1018B000BDE87040FFF7FDBED4F880100A68536899
:1018C0009DB2002DBBD0B4F85C108D42B7D2A4F805
:1018D0005E301268920624D450E8000F216820F48C
:1018E000807000F092FA01D02068F5E7206850E897
:1018F000020F216820F0010000F0C4FAF6D1206840
:1019000000F0E9F9FBD12020C4F88C000020E0664B
:1019100000F0B8F9FCD1D4F88000FEF719FEB4F855
:101920005C1002202067B4F85E00081A81B21CE047
:101930001348226852E8022F2368024043E8022538
:10194000002DF6D12020C4F88C0000206067E066EE
:10195000206850E8000F226820F0100042E80003E1
:10196000002BF5D1022089B220672046BDE87040E7
:10197000FFF781BE20010004010000103F21000894
:10198000FEFFFFEF10B570B10446D0F8880008B92B
:1019900000F099FA00F0FBF901D000F061FA00F0D4
:1019A00062FA012801D1012010BD00F046FA21F0B1
:1019B0002A01816000F0A6F9BDE8104000F098BB54
:1019C00010B594B004460EA81421FEF79BFC68469F
:1019D0003821FEF797FC2068294988421FD0294901
:1019E00088424BD14FF4403001900120009068466E
:1019F000FFF7E6F808B1FEF7EBFC2348816841F4F5
:101A000080418160806800F4804013901398022028
:101A100000F0F6F8C02024240E901C481CE04FF47F
:101A200040200290022000906846FFF7C9F808B1F4
:101A3000FEF7CEFC1448016841F4003101600068F3
:101A400000F4003013901398012000F0D9F80C2016
:101A500025240E904FF09040072112910021CDE9EE
:101A6000101102210F910EA9FEF742FF204600211E
:101A70000022FFF76BF82046FFF75AF814B010BDAC
:101A8000004400400038014058000058000400485D
:101A9000B0B5D0F88C30202B1CBF0220B0BD91B166
:101AA0008AB10023094CC3660368A34202D05C6874
:101AB000240203D400F050FE0020B0BD00F03DF938
:101AC000F8D00368FAE70120B0BD00BF00800040F5
:101AD000B0B5174D044617496878AA888854AA8873
:101AE0000132AA80AA88042A02D14988043102E07E
:101AF000E988A1B10139E980A870287840B1AB88A4
:101B00000D480C4A4FF4857101F0C6F80020A880FA
:101B1000691C20460122BDE8B040FFF7B9BF0A2882
:101B2000EAD1A9780D2904BF01212970E4E700BF9B
:101B3000900000200C0B0020980000202DE9F843B5
:101B40000446D0F8880020281CBF0220BDE8F88396
:101B50000E46C9B11746BAB14FF0000921201D4603
:101B6000C4F89090C4F88800FEF794FFA4F856706B
:101B70008046A4F85470A068B0F5805F09D1206950
:101B800028B14FF0000904E00120BDE8F883B14618
:101B90000026B4F85600B8B12046802100F043F981
:101BA000B8B926B116F8010B2168886206E039F849
:101BB000021B206800266FF35F218162B4F8560093
:101BC0000138A4F85600E4E72046402100F02BF944
:101BD00010B10320BDE8F8832020C4F8880000205D
:101BE000BDE8F8837047FEE781B00B490A680243FD
:101BF0000A60096808400090009801B0704700BF73
:101C000081B005490A6802430A60096808400090EB
:101C1000009801B0704700BF4C000058064A6FF4AE
:101C20007F2161EA101100F47F401368194041EAF6
:101C300000101060704700BF88000058FEE7FEE704
:101C40004FF0B040016841F008010160DAE9091283
:101C5000036823F0F0031A430260206820F47F40F9
:101C600040EA0120206070474FF6FF72F36F62EA8E
:101C700001021A4042EA0141F16770474FF47A705D
:101C8000FEF7C2BB206850E8000F216820F010006A
:101C900041E80002002A70472420C4F88800206828
:101CA0000568026822F001020260012284F88420A3
:101CB000826870474FF090404FF4007120474FF01A
:101CC00090404FF40071FEF7D7BE002200F098BF9D
:101CD0003060FEF7DFBE50E8020F216820F04000C0
:101CE00041E80202002A7047206820210560002098
:101CF00084F88400C4F88810B0BD4FF090404FF4D1
:101D000000712847016841F00101016020467047D9
:101D100004460068D0F81CA001688268B4F86050DE
:101D2000D4F88C30222B704751E8001F026821F450
:101D3000907142E80013002B704753E8003F04689D
:101D400043F0806344E80035002D7047C4F88C00F0
:101D5000C4F874B0C4F870B0206888427047042199
:101D60000162D4F8900040F00200C4F8900070477F
:101D700002220262D4F8902042F00402C4F89020BB
:101D800070470546D4F88C0041F28836704724200D
:101D9000C4F888002068A16A0268002922F00102C4
:101DA0000260704704F185000021842201F008B828
:101DB00001220262D4F8902042F00102C4F890207F
:101DC0007047D4F8800000287047B0F85C10FFF727
:101DD00052BC00222B460090204600F043BD20203C
:101DE000C4F88800C4F88C0000207047096801F02E
:101DF0000F0152F82110B0FBF1F07047F26F22EAA8
:101E0000114289B21143F167704741E80002002A8C
:101E10007047044690F8840001287047204600214E
:101E2000852200F0CDBF00224346009500F01ABD88
:101E3000016851E8001F026870472068416821F47A
:101E4000904141608168704702F0010901F4807897
:101E50004FF0000B70472046B4F85C10FFF70BBC46
:101E6000204600F0F1B8204600F080BB886940F0C1
:101E70000800886170473860FEF70CBE411B0320E4
:101E80000229704741E80202002A7047114381602D
:101E9000204600F0B7B8C4F89000FEF7FBBD01681B
:101EA00051E8021F026821F0010142E80213002BF1
:101EB0007047016851E8001F026821F0100142E8F4
:101EC0000013002B7047002084F884002046FFF7A1
:101ED00077BD704770B53C21214A01EA90001E4948
:101EE00008581E49FFF782FF1E49B0FBF1F4FEF7C8
:101EF00059FEB0F5007F09D11D49002003280FD0FD
:101F000031F8102094420DD90130F7E7164900202E
:101F1000032805D031F81020944203D90130F7E7A7
:101F2000002502E0114951F82050124E306820F08F
:101F300007002843FFF7CCFE0446306800F0070096
:101F4000A84204BF002070BDFEF7A4FD001B0328BB
:101F500024BF032070BDF0E7A83400080801005832
:101F60004834000840420F001E34000824340008A2
:101F700018340008004000587047FEF78FBD00007D
:101F8000B0B59AB008AD4421281DFEF7BBF902ACEC
:101F900018212046FEF7B6F9FEF70AFE1648174943
:101FA0000A5822F018020A500222086862F34A20F6
:101FB00008600868602100F4C06001900020139060
:101FC000CDE911010120109081200B902420089070
:101FD00001982846FFF792F860B94F20142102902B
:101FE000201DFEF78FF920460021FEF797FE08B965
:101FF0001AB0B0BDFEF7ECF990FCFFFF00040058EA
:1020000070470000B0B5416E91B102680C4B0D4DA8
:1020100091689268C1F34261520F5C5C695C9B5CA1
:10202000AA5CC900D200B1FBF4F1B2FBF3F201E00B
:1020300001220121A0F86810A0F86A20B0BD00BFFD
:10204000183500081035000810B5816A0A0706D552
:102050000268836B546824F4004423435360CA0726
:1020600006D00268C36A546824F4003423435360E2
:102070008A0706D50268036B546824F4803423432E
:1020800053604A0706D50268436B546824F48024E1
:1020900023435360CA0606D50268C36B946824F4D0
:1020A0008054234393608A0606D50268036C9468C3
:1020B00024F40054234393604A060FD50268436C0E
:1020C000546824F480141C43B3F5801F546005D178
:1020D000836C546824F4C00423435360090606D576
:1020E0000168C06C4A6822F400221043486010BDA9
:1020F000BCB504460020C4F89000FEF7CBFC0546B2
:1021000020680168090707D56FF07E404FF4001181
:10211000FFF75FFE50B920680068400708D56FF0F0
:102120007E404FF48001FFF754FE08B10320BCBD90
:10213000FFF755FEE06684F884002067BCBD806A26
:102140000021A0F85E10A0F85610FFF7B4BA000006
:1021500010B50168FFF7E8FDFBD18649026852E837
:10216000022F03680A4043E80224002CF6D1C16E16
:10217000012902D1FFF79DFEFCD12021C0F88C106F
:1021800000214167C16610BD0168D0F88C20222A69
:102190004DD1B0F860204B6A1A40836D23F8022BB2
:1021A000B0F85E20013AA0F85E208365B0F85E20AA
:1021B0000AB1704701684DF808EDFFF7B5FD5DF80D
:1021C00008EBF7D14DF808EDFFF769FE5DF808EB75
:1021D000F8D12021E44AC0F88C1000214167016742
:1021E0000168914202D04A68120215D4C16E0129D9
:1021F00018BFFFF76DBC0021C1664DF808EDFFF771
:1022000058FE5DF808EBF8D10168CA69D20644BFF0
:1022100010220A62FFF7D9BD51E8001F026821F0C1
:10222000806142E80013002BE0D00168F4E7FFF77B
:102230001DBE00BF2DE9F84FFFF76AFD75D1B4F858
:102240006870C84EFFF700FE002F73D01AF0200010
:1022500070D02068A16D426A2A4021F8022BB4F8A0
:102260005E20013AA4F85E20A165D0F81CA05FEAC8
:102270004A711ED05FEACA7218BFB8F1000F01D0D0
:10228000FFF796FD5FEA8A7204D5B9F1000F01D01D
:10229000FFF76EFD002904D5B9F1000F01D0FFF75B
:1022A0005EFDD4F8900020B12046FFF704FAC4F890
:1022B00090B0B4F85E000028C6D1206850E8000F46
:1022C000216820F48070FFF7A0FDF6D1206850E867
:1022D000020F21683040FFF7D5FDF7D12020A24939
:1022E000FFF734FD02D04168090210D4E06E0128E6
:1022F00017D1C4F86CB0FFF7C5FCFCD12068C169E8
:10230000C90644BF10210162FFF7A5FD9CE750E814
:10231000000F216820F08060FFF777FDE6D020688D
:10232000F5E72046FFF7D4FB8EE7816941F008010D
:1023300081611AE0B4F85E00B8B1B4F86810884260
:1023400013D2206850E8020F216820F08050FFF778
:1023500099FDF6D106486067206850E8000F2168B3
:1023600040F02000FFF751FDF6D1BDE8F88F00BF27
:1023700089210008FEFFFFEF0168D0F88C20222A97
:102380004ED1B0F86020496A1140826D1170B0F8EA
:102390005E100139A0F85E10816D01318165B0F8E1
:1023A0005E1001B1704701684DF808EDFFF7BCFC05
:1023B0005DF808EBF7D14DF808EDFFF770FD5DF81B
:1023C00008EBF8D12021D74AC0F88C1000214167D2
:1023D00001670168914202D04A68120215D4C16EA9
:1023E000012918BFFFF774BB0021C1664DF808ED45
:1023F000FFF75FFD5DF808EBF8D10168CA69D20606
:1024000044BF10220A62FFF7E0BC51E8001F0268D7
:1024100021F0806142E80013002BE0D00168F4E76E
:10242000FFF724BD2DE9F84FFFF772FC77D1B4F820
:1024300068704C4EFFF708FD002F75D01AF0200091
:1024400072D02068A16D406A28400870B4F85E0020
:102450000138A4F85E00A16D20680131A165D0F8B3
:102460001CA05FEA4A711ED05FEACA7218BFB8F1B9
:10247000000F01D0FFF79CFC5FEA8A7204D5B9F126
:10248000000F01D0FFF774FC002904D5B9F1000F4B
:1024900001D0FFF764FCD4F8900020B12046FFF78C
:1024A0000AF9C4F890B0B4F85E000028C4D12068DE
:1024B00050E8000F216820F48070FFF7A6FCF6D1E9
:1024C000206850E8020F21683040FFF7DBFCF7D1AD
:1024D00020209449FFF73AFC02D04168090210D449
:1024E000E06E012817D1C4F86CB0FFF7CBFBFCD12C
:1024F0002068C169C90644BF10210162FFF7ABFC27
:102500009AE750E8000F216820F08060FFF77DFC1B
:10251000E6D02068F5E72046FFF7DAFA8CE7816914
:1025200041F0080181611AE0B4F85E00B8B1B4F876
:102530006810884213D2206850E8020F216820F00A
:102540008050FFF79FFCF6D1C4486067206850E8D0
:10255000000F216840F02000FFF757FCF6D1BDE8DE
:10256000F88F00BFFEFFFFEF0080004070B50168EC
:10257000044680686A4ED4E903230D681843E36972
:10258000354066693043684E18432843654D0860FE
:10259000486820F4405010434860A942A0691CBF1D
:1025A000226A10438A68324010438860626AC86AAF
:1025B00020F00F001043C8625C48814208D0A94255
:1025C0000AD05B48814210D15A485CA6006807E0F7
:1025D00058480068800802E056480068800A564E55
:1025E00000F0030056F8206000E010265748A9428A
:1025F00010D00121B3F5004F1AD1082E00F28780C8
:10260000DFE806F005444E85478585854C00FEF7DA
:10261000E5FC40E00121082E00F27980DFE806F0B9
:1026200005771C77147777771A00FEF7D7FC0DE053
:10263000082E6CD8DFE806F0054C566B4F6B6B6BC1
:102640005400FEF7CBFC48E0FEF7E4FC00285BD02A
:10265000626A01E04FF400403D4931F812106268AF
:10266000B0FBF1F002EB420188424FD3B0EB023FE6
:102670004CD8010E000210EB520041F10001002382
:10268000FDF7C8FD334AA0F5407139E0FEF7B2FC12
:1026900001E0FEF7BFFCB8B3626A01E04FF400400E
:1026A0002B4931F81210B0FBF1F061684A0802EBD7
:1026B00040004FF6EF72B0FBF1F0A0F11001914233
:1026C00024D84FF6F0710140C0F34200084419E0ED
:1026D000FEF790FC01E0FEF79DFCA8B1626A01E004
:1026E0004FF400401A4931F812104FF6EF72B0FB68
:1026F000F1F0616800EB5100B0FBF1F0A0F11001C6
:10270000914203D82168C860002100E00121002027
:10271000C4E91D004FF00110A066084670BD00BF5F
:10272000F369FFCF00800040FFF4FF110044004038
:102730000038014088000058003500080100000002
:102740000400000002000000080000000024F40063
:10275000E8340008FFFC0F0010B5A0F85E2081658A
:102760000021A0F85C204167816851B1B1F1805F20
:102770000BD0B1F5805F0CD1016921B940F2FF1196
:102780000AE0016939B9FF2106E0016919B13F2169
:1027900002E0002100E07F21A0F860100021C0F8D5
:1027A00090102221C0F88C10016851E8021F0368C4
:1027B00041F0010143E80214002CF5D1416EB1F162
:1027C000005F03D1B0F86810914214D982680169A2
:1027D000B2F5805F03D1B9B12049416702E01F4AD9
:1027E000426799B1FFF724FB41F4907142E800136E
:1027F000002BF7D12BE082680169B2F5805F0ED122
:10280000C9B1144941670DE015494167FFF710FB55
:1028100041F0200142E80013002BF7D117E00D4AE8
:10282000426751B1FFF704FB41F4807142E80013A5
:10283000002BF7D101E008494167016851E8021F08
:10284000026841F0805142E80213002BF5D10020CC
:1028500010BD00BF25240008352200087923000898
:10286000892100082DE9F843DDF82090044600682E
:10287000984616460F4609F10105C1693940C91B42
:10288000B1FA81F14909B14222D1002DF5D0FEF70C
:1028900001F9A0EB080048451DD8B9F1000F1AD086
:1028A000206801684907E8D5402FE6D0802FE4D0A2
:1028B000C1690905E1D54FF40061016250E8000FDC
:1028C000216820F4D070FFF7A0FA23D02068F5E744
:1028D0000020BDE8F883206850E8000F216820F44C
:1028E000D070FFF792FAF6D1206850E8020F216805
:1028F00020F00100FFF7C6FAF6D12020C4F88800C6
:1029000004F18C00002184F8841020210160032050
:10291000BDE8F883206850E8020F216820F001002C
:10292000FFF7B0FAF6D12020C4F88800C4F88C0074
:1029300004F19000E6E700007B48FEF7BDBE00BF53
:102940007A48FEF7B9BE00BFFEE7000010B5074C9D
:1029500000F00F03B0F1FF3F034A2344C8BF8318C0
:102960000801187010BD00BF00E400E014ED00E0A5
:102970000648BFF34F8F064A016801F4E061114336
:102980000160BFF34F8F00BFFDE700BF0CED00E01B
:102990000400FA0570470000024B1B6803B118479A
:1029A000FFF7F8BFF002002088B0FEF781F8FFF7CC
:1029B000E7FA594C0420002662B60696A04702208A
:1029C000A04701200127A047544C202101222025A7
:1029D0002046FEF759F84FF0904040F201210122C5
:1029E00040F20128FEF750F8CDE90466CDE9025720
:1029F00002AD20462946FDF77BFF4FF09040294667
:102A0000CDE90466CDE90287FDF772FF454D4448E4
:102A100005F5F6310762C0E9056686800160FDF7BD
:102A200049FD002876D1404C0C204FF4E13105F5EA
:102A30007442C4E90021C4E9046004F118001421BF
:102A4000C4E90266FDF75EFC2046FEF79BFF002806
:102A500060D135480021FEF71EFE00285AD13248C9
:102A60000021FEF70AFE002854D12F48FEF7E8FDAA
:102A700000284FD12D4C00210C204FF4E132C4E945
:102A80000410C4E9021104F118001421C4E9005231
:102A9000FDF738FC2046FEF775FFD8BB2348002120
:102AA000FEF7F9FDB0BB21480021FEF7E6FD88BB2B
:102AB0001E48FEF7C5FD68BB1D4C1E49012220685B
:102AC000FEF7E6FF00F0ACFA00F092FA02A800F080
:102AD000C7FA039858B90020694605224FF0FF3322
:102AE0008DF80400144800902068FFF727F8134D74
:102AF000134C0026287830B1DDE9030121B118B963
:102B000000F0BEFA2E7003980128F3D1204600F0A1
:102B10003BFAEFE7FDF75CFCE91B00080004004806
:102B2000A401002000440040C80100205C020020F5
:102B30000C0000209100002041434B0A900000202F
:102B400000400008B0B588422AD241EA00039B0742
:102B500013D081EA00039B07134606D11346042ACB
:102B600024BF01F00303C3F104031C4611F8015B09
:102B7000013C00F8015BF9D1D21A0023B3EB920FAC
:102B800004D0930810C9013B10C0FBD112F003021E
:102B900034D011F8013B013A00F8013BF9D12DE0A6
:102BA0001044114441EA00039B0711D0052A134643
:102BB00081EA000428BF01F00303A40718BF1346ED
:102BC0001C4611F8015D013C00F8015DF9D1D21AF3
:102BD0000023B3EB920F06D0930851F8044D013B4C
:102BE00040F8044DF9D112F0030207D00139013841
:102BF00011F80139013A00F80139F9D1B0BD0000EE
:102C0000F0B5140615041602034639B110F0030797
:102C100004D003F8012B01300139F6E746EA02003F
:102C2000284320438C080F2C1BD8DFE804F02D1616
:102C30001514131211100F0E0D0C0B0A090801C305
:102C400001C301C301C301C301C301C301C301C364
:102C500001C301C301C301C301C3002418600433CD
:102C6000E1E7C3E90800C3E90A00C3E90C0098637F
:102C7000C3E90000C3E90200C3E90400C3E9060098
:102C800043F83C0F103CEAE701F0030018B103F8E9
:102C9000012B0138FAE7F0BD10B528B159B1B1F1F7
:102CA000805F0AD939A00EE0444800214FF4C87271
:102CB0004FF4C87415E03CA00EE053B18B4214D918
:102CC000FFF703F825A0002140F2931240F293147D
:102CD00007E0FEF7FAFF28A0002140F2911240F22F
:102CE0009114FFF759FE204610BD92B1904202D9CF
:102CF000D418844204D882420FD9441894420CD983
:102D0000FEF7E3FF08A000214FF4CA724FF4CA7423
:102D1000E7E7FEF7DAFF0BA0C7E711461A46FFF711
:102D200011FF0024DFE700BF6D656D6370795F738D
:102D30003A206F7665726C617020756E64656669A5
:102D40006E6564006D656D6370795F733A207372B0
:102D500063206973204E554C4C0000006D656D6317
:102D600070795F733A20736D61782065786365656B
:102D7000647320646D6178006D656D6370795F7355
:102D80003A20736D61782069732030006D656D6342
:102D900070795F733A20646D61782065786365654A
:102DA0006473206D617800006D656D6370795F7389
:102DB0003A20646D61782069732030002039000862
:102DC00010B550B181B1B1F1805F16D90DA00021CD
:102DD00040F2931240F293140CE016A000214FF43D
:102DE000C8724FF4C87405E00DA0002140F29112A2
:102DF00040F29114FFF7D0FD02E0FFF701FF00243D
:102E0000204610BD6D656D7365745F733A206C6507
:102E10006E2065786365656473206D6178000000DD
:102E20006D656D7365745F733A206C656E206973B0
:102E3000203000006D656D7365745F733A206465C2
:102E40007374206973206E756C6C0000F0B5354B9F
:102E5000844684084FF0FF300025A5421CD0AF0007
:102E600011F825607A1C8A5C120442EA0662BE1CD4
:102E70008E5D42EA0622FE1C04278E5D16444FB189
:102E800080EA0602013F3602120E53F8222082EA3F
:102E90000020F4E70135E0E71CF0030419D02CF022
:102EA0000302E50018260A440021AF19182F0ED09E
:102EB00012F8017BB740083E3943F6E780EA010289
:102EC000013C0902120E53F8222082EA0020002C55
:102ED000F4D1F0BDF0B5134C8A084FF0FF31002358
:102EE000934204BF0846F0BD9E0010F82350771CA3
:102EF000C75D3F0447EA0565B71C0336C75D865DBD
:102F000045EA0725354404264EB181EA0507013E0E
:102F10002D023F0E54F8277087EA0121F4E70133B0
:102F2000DEE700BF203500082DE9FE4305462B48AB
:102F300020218146FDF7A0FDFEF7C1FEFDF74EFC06
:102F4000DFF8E48300276E460024B4F5006F10D24A
:102F500008EB0402304608210823CDE90077FFF78B
:102F60009BFEDDE9002329190120FDF7FDFB083454
:102F7000EBE7FDF7EFFB48462021FDF77DFDFEF76F
:102F80009EFEBDE8FE8300BFB0B50446F148144D77
:102F90002021A8474FF090404FF40071A8474FF010
:102FA00090400121A8470F48016821F0010101600C
:102FB000016821F002010160FDF786FFFDF736FB95
:102FC00009480021016041608160EFF3108072B612
:102FD000064804606068BDE8B0400047000400484F
:102FE000050800084C00005810E000E008ED00E083
:102FF000B0B586B0F14808490068884209D0074852
:1030000090E83E004069059068468DE83E0000F07B
:10301000E1F906B0B0BD00BFEC77D14E3034000806
:10302000B0B5CD4CFEF746FE0C4DC820A847FEF7C4
:1030300041FEC820A847FEF73DFEC820A847FEF77E
:1030400039FEC820A847FEF735FEC820A847FEF77E
:1030500031FEC8202946BDE8B04008477D0600087B
:1030600070B5EC49D64AD74BD74CD84DD84E0968E5
:1030700012681B6824682D6836687EC070BD00BF6A
:103080002DE9F0418AB0A54CA54F6078397891B907
:10309000022810D102A8FFF7E3FF049801280AD103
:1030A0006068B0F56A3F06D800207860F860B860C4
:1030B0007870022038703878002800F091803878D5
:1030C0000238032800F28880DFE800F002394D75ED
:1030D0006078022840F080806068A1689E4D78602A
:1030E0009C48B96020218046A847FEF706FEFDF700
:1030F00075FB7520049008200390022002900020A8
:10310000089002A808A9FDF7CBFA0646FDF722FBB6
:1031100040462021A847FEF7F0FD002E5CD1032099
:103120000B2238708D4802908CA041680391018970
:10313000807A8DF812008148ADF8101010E06078A8
:10314000032849D1606809223861042038707E481C
:1031500002907DA04168007A8DF8100077480391B5
:10316000006802A9A5E06078012835D178886588D3
:10317000C0F500618AB2AA4238BF0D466A49ABB2B7
:10318000221D08444FF40061FFF786FD788828442B
:103190007880F96811FA85F1F96081B2B1F5006FB4
:1031A00028D161484FF40061FFF794FE78613969D6
:1031B000814238D041E0607870B9207901280BD184
:1031C000F8685849FFF742FE00213970B968884213
:1031D00002D10120787070E0FEF720FEFEF7E2FDDC
:1031E000FEF76DFD3220FDF749FAFEF768FD0AB0E3
:1031F000BDE8F081F8687A68904201D2012625E0A6
:10320000494D2846FFF766FE78613969814214D13D
:1032100079880020B0EBD12F05D16818C1F5006185
:10322000FF22FFF7CDFD414D2868FFF77DFE28689E
:10323000002600F50060286000E001263A484FF4BF
:103240000061FF22FFF7BCFD0020788038483B4D2D
:1032500009224FF0FF33029035A04168007A8DF8C3
:1032600010002868039102A9FEF768FC2EBB03201A
:103270003870F868796888420CD300202949FF2209
:1032800078802A48016028484FF40061FFF798FDD4
:103290000520387038697969884202D129480422AA
:1032A00004E00A200622ADF824002548089028688A
:1032B00008A94FF0FF33FEF741FCFEF7AFFDFEF724
:1032C00071FD244C20212046FDF7D6FB3220FDF76E
:1032D000D5F920462021FDF7CFFB787801287FF42F
:1032E00086AF1D4D20462021A8474FF09040012178
:1032F000A847FEF702FDFB68B8684FF0FF314FF0BA
:10330000FF320090012000F02FF84FF4FA60FDF733
:10331000B5F9EFF3108072B6FFF72AFB9800002092
:1033200078000020004000080C030020100000205E
:10333000444154415F4F4B0A000000000C00002044
:103340004E41434B41434B0042554C4B5F4F4B0A60
:103350000000000000040048790A00084845414484
:1033600045525F4F4B0A000010B586B0294C2468C7
:103370000094134C24680194124C24680294124C5B
:1033800024680394114C24680494114C2468059417
:10339000441C18BF0190481C18BF0291501C18BF54
:1033A00003920898591C18BF0493411C18BF05903C
:1033B000684600F00FF806B010BD00BF00E8030833
:1033C00004E8030808E803080CE8030810E8030809
:1033D00014E803087FB50446FDF700FA0120002534
:1033E000694603907D20009502900220019001A87B
:1033F000FDF756F9074E182D08D060196259A91922
:1034000043680120FDF7B0F90835F4E7FDF7A2F9AC
:103410007FBD00BF00E80308120024003000060052
:103420000C0010000000000001000000020000007D
:10343000EC77D14E01000000010000000000000008
:103440000000000000000000010000000300000078
:10345000050000000100000001000000060000005F
:103460000A0000002000000002000000040000002C
:103470000800000010000000400000008000000074
:103480000001000000020000000000000000000039
:103490000000000000000000010000000200000029
:1034A0000300000004000000A0860100400D03009E
:1034B000801A060000350C0040420F0080841E0078
:1034C00000093D0000127A000024F40000366E016D
:1034D0000048E801006CDC02000000000000000071
:1034E00000000000000000000100020004000600CF
:1034F00008000A000C0010002000400080000001BD
:1035000000000000040000000200000008000000AD
:103510000101010307010000080402040801010180
:1035200000000000B71DC1046E3B8209D926430D7F
:10353000DC7604136B6BC517B24D861A0550471E17
:10354000B8ED08260FF0C922D6D68A2F61CB4B2BB7
:10355000649B0C35D386CD310AA08E3CBDBD4F385F
:1035600070DB114CC7C6D0481EE09345A9FD5241FF
:10357000ACAD155F1BB0D45BC2969756758B565297
:10358000C836196A7F2BD86EA60D9B6311105A6737
:1035900014401D79A35DDC7D7A7B9F70CD665E74DF
:1035A000E0B6239857ABE29C8E8DA191399060953F
:1035B0003CC0278B8BDDE68F52FBA582E5E6648657
:1035C000585B2BBEEF46EABA3660A9B7817D68B377
:1035D000842D2FAD3330EEA9EA16ADA45D0B6CA09F
:1035E000906D32D42770F3D0FE56B0DD494B71D9BF
:1035F0004C1B36C7FB06F7C32220B4CE953D75CAD7
:1036000028803AF29F9DFBF646BBB8FBF1A679FFF6
:10361000F4F63EE143EBFFE59ACDBCE82DD07DEC1E
:1036200077708634C06D4730194B043DAE56C539AE
:10363000AB0682271C1B4323C53D002E7220C12AE6
:10364000CF9D8E1278804F16A1A60C1B16BBCD1FE6
:1036500013EB8A01A4F64B057DD00808CACDC90C2E
:1036600007AB9778B0B6567C69901571DE8DD4752E
:10367000DBDD936B6CC0526FB5E6116202FBD06666
:10368000BF469F5E085B5E5AD17D1D576660DC5366
:1036900063309B4DD42D5A490D0B1944BA16D840AE
:1036A00097C6A5AC20DB64A8F9FD27A54EE0E6A1EE
:1036B0004BB0A1BFFCAD60BB258B23B69296E2B2A6
:1036C0002F2BAD8A98366C8E41102F83F60DEE8726
:1036D000F35DA9994440689D9D662B902A7BEA94EE
:1036E000E71DB4E0500075E4892636E93E3BF7ED6E
:1036F0003B6BB0F38C7671F7555032FAE24DF3FE26
:103700005FF0BCC6E8ED7DC231CB3ECF86D6FFCBA5
:103710008386B8D5349B79D1EDBD3ADC5AA0FBD86D
:10372000EEE00C6959FDCD6D80DB8E6037C64F64CD
:103730003296087A858BC97E5CAD8A73EBB04B7785
:10374000560D044FE110C54B383686468F2B474245
:103750008A7B005C3D66C158E4408255535D43510D
:103760009E3B1D252926DC21F0009F2C471D5E284D
:10377000424D1936F550D8322C769B3F9B6B5A3B05
:1037800026D6150391CBD40748ED970AFFF0560EC5
:10379000FAA011104DBDD014949B93192386521D8D
:1037A0000E562FF1B94BEEF5606DADF8D7706CFC8D
:1037B000D2202BE2653DEAE6BC1BA9EB0B0668EFC5
:1037C000B6BB27D701A6E6D3D880A5DE6F9D64DA05
:1037D0006ACD23C4DDD0E2C004F6A1CDB3EB60C94D
:1037E0007E8D3EBDC990FFB910B6BCB4A7AB7DB00D
:1037F000A2FB3AAE15E6FBAACCC0B8A77BDD79A345
:10380000C660369B717DF79FA85BB4921F46759684
:103810001A163288AD0BF38C742DB081C3307185CC
:1038200099908A5D2E8D4B59F7AB085440B6C9501C
:1038300045E68E4EF2FB4F4A2BDD0C479CC0CD4334
:10384000217D827B9660437F4F460072F85BC17694
:10385000FD0B86684A16476C93300461242DC565BC
:10386000E94B9B115E565A1587701918306DD81C9C
:10387000353D9F0282205E065B061D0BEC1BDC0FB4
:1038800051A69337E6BB52333F9D113E8880D03A14
:103890008DD097243ACD5620E3EB152D54F6D4293C
:1038A0007926A9C5CE3B68C1171D2BCCA000EAC85C
:1038B000A550ADD6124D6CD2CB6B2FDF7C76EEDBF4
:1038C000C1CBA1E376D660E7AFF023EA18EDE2EED4
:1038D0001DBDA5F0AAA064F4738627F9C49BE6FD7C
:1038E00009FDB889BEE0798D67C63A80D0DBFB84DC
:1038F000D58BBC9A62967D9EBBB03E930CADFF9774
:10390000B110B0AF060D71ABDF2B32A66836F3A253
:103910006D66B4BCDA7B75B8035D36B5B440F7B1FB
:103920006D656D6370795F733A20646573742069A7
:1039300073204E554C4C0000583900080000002000
:1039400018000000740100087039000818000020F9
:1039500008120000900100080100000010000000A3
:1039600000093D005C02002000400008000000004B
:0400000508000139B5
:00000001FF
